:020000020000FC
:103FE000000000110021410000000000000000005E
:103FF00000000000000000000000000000000000C1
:0200000024C01A
:020004002AC010
:020008009BC09B
:02002800189529
:100048009AC0F8940FE50DBF04E00EBFB8D07894BD
:10005800FFCF829924C00BE005BF002704BB0ABB71
:10006800969800000000000013B31F7129B32F7188
:10007800969A879913C00FE00A95F1F7849B0BC0F5
:10008800FFE3E12FE06E0490FF27E0EAE00DFF1F99
:10009800002009F01895E0E6F0E0189518950AE0B8
:1000A80005BF849910C0143071F4E0E6F0E00191C6
:1000B8003191031741F4043039F0053081F00A30EA
:1000C800C9F00B3041F11895A190B190C190E1EBC6
:1000D800F0E0A192B192C192F89409D118954F77A6
:1000E800519157FD4068E4EBF0E05193752F65EFAF
:1000F8009CD0189591609260792F66EF96D06191A7
:10010800719193D0E5EBF0E0619371939D7F792F26
:1001180066EF8BD018959E7F9260792F66EF85D019
:100128006191A3D0E5EBF0E06193719391609D7FBD
:10013800792F66EF7AD0189584990DC000270ABBED
:1001480004BB959800000000000009B3019303B3B5
:100158000193959A18950FEF0ABB04BB01910BBB4D
:10016800019105BB9598000000000000959A0027B2
:100178000ABB04BB1895EF93FF9393D040FD18C0BA
:10018800E1EC052F0850000F000FE00FF0E031926E
:1001980051931192219247FD08C0416053955831FF
:1001A80008F058E0752F65EF40D0FF91EF91189552
:1001B8008A9511F484E04E7FFF91EF9118958F98FE
:1001C8008B988C988D9A959A8E9A969A9DE3792F0A
:1001D80066EF2BD07FE165EF28D019D011242224B7
:1001E800332458E0442781E070D0B299FECF00E272
:1001F800A02E01E1B02E06E4C02E79D0B29BFECF2E
:100208000AE005BF00E004BF00EE0BBF0895BD9AE9
:10021800BF9AC79ABC9AC49ABB9AC39ABA98C29A08
:1002280000E00EB904E50DB90895C09AB89A0FEF29
:100238000ABB04BB7BBB062F05BB00000000000007
:1002480000000000C098000000000000000000004E
:1002580000000000000000000000C09A00270ABB50
:1002680004BB0FEF0BBB05BB0895C19AB99A0027D1
:100278000ABB0FEF04BB062F05BBC19800000000A6
:100288000000000000000000000000000000000066
:1002980079B3C19A00270ABB04BB0FEF0BBB05BBA0
:1002A80008951124BD98C49AC3983FB8779BFECF90
:1002B8003FB03FB8779BFECF2FB0B29904C02FB89C
:1002C800779BFECF1FB0C39A08951124BD98C49A96
:1002D800C3983FB8779BFECF3FB03FB8779BFECF20
:1002E8002FB02FB8779BFECF1FB0C39A0895BD9A41
:1002F800C498C39A0A2D0FB9779BFECF0FB10B2D67
:100308000FB9779BFECF0FB10C2D0FB9779BFECF9E
:100318000FB1C49AE1EBF0E0A192B192C1920895B5
:00000001FF
